:100000000C9434000C9451000C9451000C94510049
:100010000C9451000C9451000C9451000C9451001C
:100020000C9451000C9451000C9451000C9451000C
:100030000C9451000C9451000C9451000C945100FC
:100040000C9451000C9451000C945C010C945100E0
:100050000C9451000C9451000C9451000C945100DC
:100060000C9451000C94510011241FBECFEFD8E026
:10007000DEBFCDBF11E0A0E0B1E0E4E8FDE002C0EA
:1000800005900D92A036B107D9F711E0A0E6B1E0D6
:1000900001C01D92A237B107E1F70E9487010C94BD
:1000A000C0060C94000097B18095982397B9EAE7B1
:1000B000F0E0808185688083ECE7F0E080818062F9
:1000C0006295660F660F607C862B80830895DF92B1
:1000D000EF92FF920F931F9380916101843431F06E
:1000E0008135D1F1813409F06BC060C0809162012B
:1000F0008D3399F4F0906301E0906401D090650134
:100100006091660170E080E090E00E9480058B01C4
:100110009C018F2D6E2D4D2D1CC0809162018F335F
:1001200019F480E091E04EC080916201823409F0C0
:100130004BC080E49CE920E931E0F9013197F1F707
:100140000197D9F781E061E044E600E010E028EC97
:1001500032E40E94AA0138C0809162018F33A1F578
:1001600080916301853561F40E946A036AE370E05F
:100170000E949906CB010E942E0488E091E022C0E3
:10018000809163018D3401F58BE091E00E945B0367
:100190000E940B0388E191E00E945B0383E00E94D0
:1001A00028030E942E0485E291E00CC08091620138
:1001B0008F3319F48AE291E005C08091620104C096
:1001C00088E391E00E945B031F910F91FF90EF90F5
:1001D000DF900895F894A1E6B1E0E9E6F1E088E067
:1001E00001900D928150E1F780916901E82FF0E0D4
:1001F00088E0DF011D928A95E9F7789408951092BE
:10020000B9008CE08093B8000895982F84EA809319
:10021000BC008091BC0087FFFCCF8091B900887F33
:10022000883021F0803111F081E008959093BB0077
:1002300084E88093BC008091BC0087FFFCCF909144
:10024000B900987F983111F480E0089580E09034EF
:1002500009F081E008950E940501089584E98093E2
:10026000BC008091BC0084FDFCCF08958093BB004E
:1002700084E88093BC008091BC0087FFFCCF809114
:10028000B90090E0887F883209F091E0892F0895C5
:1002900084EC8093BC008091BC0087FFFCCF8091F0
:1002A000BB00089584E88093BC008091BC0087FF68
:1002B000FCCF8091BB0008951F920F920FB60F9252
:1002C00011248F93EF93FF93E0916001F0E0809110
:1002D000C600E759FE4F8083E0916001F0E0E759E6
:1002E000FE4F80818D3031F481E080937101109256
:1002F000600105C0809160018F5F80936001FF9174
:10030000EF918F910F900FBE0F901F9018950E9444
:1003100047030E94680380E063E00E9453000E944C
:10032000A3010E94FF0084E491E00E945B037894A3
:10033000809171018130E1F70E94EA000E9467001C
:1003400010927101F5CF8AB18F638AB98BB1807C2D
:100350008BB908952F923F924F925F926F927F9246
:100360008F929F92AF92BF92CF92DF92EF92FF92C5
:100370000F931F93DF93CF9300D000D000D0CDB761
:10038000DEB7F82E1801290150E060E070E0CB01E3
:10039000BA010E94800520E030E048EC52E40E945F
:1003A000EC0420E030E04AEF53E40E9436063B01C3
:1003B0004C0160E070E08AEF93E4A40193010E9495
:1003C00083046A837B838C839D8381E0F81611F418
:1003D00097E10FC0E2E0FE1619F4FBE2F983F4C0E6
:1003E000FF2011F41982F0C083E0F81609F0ECC088
:1003F0009FE39983E9C08BB1E9818E2B8BB9C4014E
:10040000B3012BEA3AEA4AEA50E40E9436067B013D
:100410008C0120E030E040E85FE30E94E80488239C
:1004200014F461E053C0C801B70120E030E04FE7A9
:1004300053E40E94320618160CF044C0C401B30104
:1004400020E030E04AE754E40E94EC045B016C01D8
:1004500020E030E04AE755E40E9436067B018C013B
:1004600020E030E040E85FE30E94E80488231CF4C9
:1004700061E070E023C0C801B70120E03FEF4FE723
:1004800057E40E9432061816ACF4C601B50120E00C
:1004900030E040E251E40E9436060E94540506C056
:1004A00080E991E00197F1F76150704061157105A5
:1004B000B9F70EC0C801B7010E945405CB010197DE
:1004C000F1F706C0C801B7010E9454056A95F1F71B
:1004D0008BB1FE818F238BB96A817B818C819D8159
:1004E0002BEA3AEA4AEA50E40E9436067B018C0184
:1004F00020E030E040E85FE30E94E804882314F441
:1005000061E055C0C801B70120E030E04FE753E497
:100510000E94320618160CF046C06A817B818C81DD
:100520009D8120E030E04AE754E40E94EC045B0146
:100530006C0120E030E04AE755E40E9436067B017A
:100540008C0120E030E040E85FE30E94E80488236B
:100550001CF461E070E023C0C801B70120E03FEF68
:100560004FE757E40E9432061816ACF4C601B501F5
:1005700020E030E040E251E40E9436060E9454053B
:1005800006C080E991E00197F1F761507040611574
:100590007105B9F70EC0C801B7010E945405CB011F
:1005A0000197F1F706C0C801B7010E9454056A958A
:1005B000F1F7C201B1012DEC3CEC4CE45DE30E948B
:1005C00083041B012C0103C0898180958E83C201A5
:1005D000B10120E030E040E050E00E943206181601
:1005E0000CF409CF26960FB6F894DEBF0FBECDBF30
:1005F000CF91DF911F910F91FF90EF90DF90CF90FF
:10060000BF90AF909F908F907F906F905F904F9032
:100610003F902F90089588E10E9405018AE00E9492
:10062000360181E00E9436010E942E0188E10E947D
:10063000050182E00E9436010E942E0189E10E949C
:100640002B010E9452010E945201882379F30895E0
:100650000F931F93182F88E10E940501812F0E949C
:1006600036010E942E0189E10E942B010E9448015F
:10067000082F10E00E9452010E942E0185E0000F19
:10068000111F8A95E1F7C8011F910F91089589E123
:1006900090E09093C5008093C400E0ECF0E080818E
:1006A0008D7F808388E98093C100E2ECF0E0808157
:1006B000866080830895FC0107C08091C00085FF9B
:1006C000FCCF31969093C60090819923B1F708959D
:1006D000569A08955E9A80E58A95F1F75E988AE6C3
:1006E0008A95F1F780E090E0A0E0B0E04F990CC06F
:1006F0000196A11DB11D803C27E2920729E0A207C7
:1007000020E0B20799F73CC01092800082E080930D
:100710008100109285001092840020E030E040E0DB
:1007200050E04F9B14C080918400909185008156C9
:100730009A4E68F42F5F3F4F4F4F5F4F203C87E248
:10074000380789E0480780E0580759F719C08091B9
:10075000840090918500A0E0B0E010928100813685
:100760002AEE920720E0A20720E0B20718F02EEF51
:100770003FEF08C0B695A795979587959C0102C055
:100780002FEF3FEFC90108950F931F93DF93CF938E
:1007900000D000D000D0CDB7DEB7AC010DB71EB78A
:1007A0001C821B8220E030E002C02F5F3F4FFA0125
:1007B000E20FF31F80818823C1F73E832D838D8153
:1007C0009E812DB73EB7281B390B0FB6F8943EBF5C
:1007D0000FBE2DBF6DB77EB76F5F7F4F2D813E81FE
:1007E000DA01A20FB31F0DC0EB81FC818C91E60FE3
:1007F000F71F80838B819C8101969C838B83215082
:1008000030401197121613067CF31A8219820FC01A
:10081000A981BA81E981FA81E60FF71F8081A40FCF
:10082000B51F8C9389819A8101969A838983298146
:100830003A818D819E812817390754F30FB6F894B9
:100840001EBF0FBE0DBF26960FB6F894DEBF0FBEBB
:10085000CDBFCF91DF911F910F910895CF92DF927D
:10086000EF92FF920F931F93DF93CF9300D000D0AE
:100870000F92CDB7DEB76C019C0197FF04C0222711
:100880003327281B390BEE24FF248E010F5F1F4FE7
:10089000F801EE0DFF1DC9016AE070E00E94AD068F
:1008A000805D80830894E11CF11CC9016AE070E05E
:1008B0000E94AD069B011616170654F3D7FE08C01A
:1008C0000E0D1F1D8DE2F80180830894E11CF11CC0
:1008D0008E010F5F1F4FE00EF11EF7011082C8015D
:1008E0000E94C403C8010E945B030F900F900F90F9
:1008F0000F900F90CF91DF911F910F91FF90EF908C
:10090000DF90CF9008955058BB27AA270ED070C112
:1009100061D130F066D120F031F49F3F11F41EF424
:1009200056C10EF4E095E7FB4CC1E92F72D180F37C
:10093000BA17620773078407950718F071F49EF5DC
:100940008AC10EF4E0950B2EBA2FA02D0B01B90130
:1009500090010C01CA01A0011124FF27591B99F035
:10096000593F50F4503E68F11A16F040A22F232F41
:10097000342F4427585FF3CF469537952795A79591
:10098000F0405395C9F77EF41F16BA0B620B730B38
:10099000840BBAF09150A1F0FF0FBB1F661F771FA9
:1009A000881FC2F70EC0BA0F621F731F841F48F45E
:1009B000879577956795B795F7959E3F08F0B3CFE4
:1009C0009395880F08F09927EE0F979587950895CE
:1009D000D4D008F481E008950CD00AC102D140F0CF
:1009E000F9D030F021F45F3F19F0EBC0511134C160
:1009F000EEC00FD198F39923C9F35523B1F3951B9A
:100A0000550BBB27AA2762177307840738F09F5F2F
:100A10005F4F220F331F441FAA1FA9F333D00E2E9E
:100A20003AF0E0E830D091505040E695001CCAF70B
:100A300029D0FE2F27D0660F771F881FBB1F2617D0
:100A400037074807AB07B0E809F0BB0B802DBF01A3
:100A5000FF2793585F4F2AF09E3F510568F0B1C0C1
:100A6000FBC05F3FECF3983EDCF386957795679586
:100A7000B795F7959F5FC9F7880F911D9695879554
:100A800097F90895E1E0660F771F881FBB1F621773
:100A900073078407BA0720F0621B730B840BBA0B31
:100AA000EE1F88F7E0950895BCD088F09F5790F02E
:100AB000B92F9927B751A0F0D1F0660F771F881F83
:100AC000991F1AF0BA95C9F712C0B13081F0C3D09E
:100AD000B1E00895C0C0672F782F8827B85F39F03C
:100AE000B93FCCF3869577956795B395D9F73EF4E2
:100AF00090958095709561957F4F8F4F9F4F08958A
:100B0000E89409C097FB3EF49095809570956195A7
:100B10007F4F8F4F9F4F9923A9F0F92F96E9BB275D
:100B20009395F695879577956795B795F111F8CFD9
:100B3000FAF4BB0F11F460FF1BC06F5F7F4F8F4F44
:100B40009F4F16C0882311F096E911C0772321F03A
:100B50009EE8872F762F05C0662371F096E8862FD2
:100B600070E060E02AF09A95660F771F881FDAF729
:100B7000880F9695879597F90895990F0008550F56
:100B8000AA0BE0E8FEEF16161706E807F907C0F013
:100B900012161306E407F50798F0621B730B840B1B
:100BA000950B39F40A2661F0232B242B252B21F4F5
:100BB00008950A2609F4A140A6958FEF811D811D95
:100BC000089597F99F6780E870E060E008959FEFCF
:100BD00080EC089500240A941616170618060906D4
:100BE000089500240A9412161306140605060895A3
:100BF000092E0394000C11F4882352F0BB0F40F42B
:100C0000BF2B11F460FF04C06F5F7F4F8F4F9F4F6A
:100C1000089557FD9058440F551F59F05F3F71F0EC
:100C20004795880F97FB991F61F09F3F79F0879553
:100C30000895121613061406551FF2CF4695F1DFDC
:100C400008C0161617061806991FF1CF869571056C
:100C5000610508940895E894BB2766277727CB01A0
:100C600097F908958ADF08F48FEF08950BD0C0CF6D
:100C7000B1DF28F0B6DF18F0952309F0A2CFA7CF97
:100C80001124EACFC6DFA0F3959FD1F3950F50E072
:100C9000551F629FF001729FBB27F00DB11D639F2E
:100CA000AA27F00DB11DAA1F649F6627B00DA11DD4
:100CB000661F829F2227B00DA11D621F739FB00D7A
:100CC000A11D621F839FA00D611D221F749F3327EA
:100CD000A00D611D231F849F600D211D822F762F83
:100CE0006A2F11249F5750408AF0E1F088234AF080
:100CF000EE0FFF1FBB1F661F771F881F91505040CC
:100D0000A9F79E3F510570F05CCFA6CF5F3FECF393
:100D1000983EDCF3869577956795B795F795E795B7
:100D20009F5FC1F7FE2B880F911D9695879597F9C8
:100D30000895AA1BBB1B51E107C0AA1FBB1FA61722
:100D4000B70710F0A61BB70B881F991F5A95A9F774
:100D500080959095BC01CD01089597FB092E07263B
:100D60000AD077FD04D0E5DF06D000201AF4709594
:100D700061957F4F0895F6F7909581959F4F08955F
:040D8000F894FFCF15
:100D840044726976650D0A000D0A00547269672081
:100D9400436F6D70617373005265616420436F6DBE
:100DA4007061737300446F6E65004E616D65202E33
:100DB4003A2E20413D0D0A00434D44204572726F86
:100DC400720D0A0048656C6C6F2E204D79206E619F
:100DD4006D652069732053544556452E0D0A000055
:00000001FF
