:100000000C9434000C9451000C9451000C94510049
:100010000C9451000C9451000C9451000C9451001C
:100020000C9451000C9451000C9451000C9451000C
:100030000C9451000C9451000C9451000C945100FC
:100040000C9451000C9451000C947C080C945100B9
:100050000C9451000C9451000C9451000C945100DC
:100060000C9451000C94510011241FBECFEFD8E026
:10007000DEBFCDBF12E0A0E0B1E0E0E2F4E202C0FA
:1000800005900D92AE3DB107D9F712E0AEEDB2E0AA
:1000900001C01D92A03FB107E1F70E94A7080C9490
:1000A0000E120C940000EF92FF920F931F937B01AE
:1000B0008C0120E030E040E05FE40E94FF038823F1
:1000C0008CF0C801B70120E030E040E05FE40E941E
:1000D000CB010E945F049B01AC01205030404040A6
:1000E000504806C0C801B7010E945F049B01AC01E3
:1000F000B901CA011F910F91FF90EF900895A0E000
:10010000B0E0E5E8F0E00C94D711DC012B01FA0136
:100110009C91923008F439C1EB018881823008F457
:1001200033C1943069F4843009F02FC111969C9149
:1001300011978981981709F428C1A5EDB1E025C16F
:10014000843009F421C18230A9F4923009F01DC134
:100150009A01AD0188E0EA010990AE01E901099236
:100160009E018150C1F7E201898111969C918923FA
:10017000818308C1923009F407C112962D903C90FA
:100180001397EB018A819B811496AD90BD90CD9021
:10019000DC901797EC80FD800E811F819101281B58
:1001A000390BB90137FF04C066277727621B730B31
:1001B000603271050CF061C0121613066CF5370140
:1001C0004801062E04C096948794779467940A9405
:1001D000D2F721E030E040E050E004C0220F331FAE
:1001E000441F551F6A95D2F721503040404050407F
:1001F0002E213F2140235123211531054105510571
:1002000021F021E030E040E050E079018A01E62869
:10021000F728082919293CC0232BD1F1260E371EB7
:1002200035014601062E04C096948794779467940E
:100230000A94D2F721E030E040E050E004C0220F01
:10024000331F441F551F6A95D2F72150304040405C
:1002500050402A213B214C215D21211531054105CA
:10026000510521F021E030E040E050E059016A0101
:10027000A628B728C828D9280BC0821593052CF0CA
:100280001C01AA24BB24650103C0EE24FF248701BE
:1002900011969C91D20111968C91981709F445C042
:1002A000992339F0A80197012A193B094C095D09E6
:1002B00006C0A60195012E193F09400B510B57FDB1
:1002C00008C0118233822282248335834683578378
:1002D0001DC081E081833382228288279927DC0137
:1002E000821B930BA40BB50B84839583A683B783E2
:1002F0000DC0220F331F441F551F248335834683AF
:1003000057838281938101979383828324813581EE
:1003100046815781DA01C9010197A109B1098F5FAF
:100320009F4FAF4FBF4328F30BC09183338222828C
:10033000EA0CFB1C0C1D1D1DE482F582068317834D
:1003400083E08083248135814681578157FF1AC01D
:10035000C901AA2797FDA095BA2F81709070A0704F
:10036000B0705695479537952795822B932BA42BE4
:10037000B52B84839583A683B7838281938101966D
:1003800093838283DF0101C0D201CD01CDB7DEB7F7
:10039000E2E10C94F311A0E2B0E0E1EDF1E00C94A5
:1003A000E31169837A838B839C832D833E834F8300
:1003B0005887E9E0EE2EF12CEC0EFD1ECE010196E1
:1003C000B7010E9450068E010F5E1F4FCE010596A9
:1003D000B8010E9450068A8991E089278A8BC7015B
:1003E000B801AE01475E5F4F0E947F000E947B050F
:1003F000A096E6E00C94FF11A0E2B0E0E2E0F2E0AB
:100400000C94E31169837A838B839C832D833E83D1
:100410004F835887F9E0EF2EF12CEC0EFD1ECE0134
:100420000196B7010E9450068E010F5E1F4FCE014C
:100430000596B8010E945006C701B801AE01475E9B
:100440005F4F0E947F000E947B05A096E6E00C941F
:10045000FF11A0E2B0E0EFE2F2E00C94D711698363
:100460007A838B839C832D833E834F835887CE0171
:100470000196BE01675F7F4F0E945006CE01059630
:10048000BE016F5E7F4F0E9450069985923088F0C2
:1004900089898230C8F0943019F4823051F404C054
:1004A000843029F4923081F485ED91E0C6C0923019
:1004B00049F420E09A858A89981321E02A87CE01A1
:1004C0000996BBC0823049F420E09A858A89981346
:1004D00021E02A8BCE014196B0C02D843E844F840A
:1004E00058886D887E888F88988CEE24FF24870139
:1004F000AA24BB24650140E050E060E070E0E0E049
:10050000F0E0C10181709070892BE9F0E60CF71CD6
:10051000081D191D9A01AB012A0D3B1D4C1D5D1DC7
:1005200080E090E0A0E0B0E0E614F70408051905CB
:1005300020F481E090E0A0E0B0E0BA01A901480F0A
:10054000591F6A1F7B1FAA0CBB1CCC1CDD1C97FE0D
:1005500008C081E090E0A0E0B0E0A82AB92ACA2A49
:10056000DB2A3196E032F10549F0660C771C881CD5
:10057000991C5694479437942794C3CFFA85EA89F7
:100580002B893C898B859C85280F391F2E5F3F4F17
:1005900017C0CA0181709070892B61F0169507957C
:1005A000F794E79480E090E0A0E0B0E8E82AF92A28
:1005B0000A2B1B2B76956795579547952F5F3F4FD5
:1005C00077FDE7CF0CC0440F551F661F771F17FD3F
:1005D0004160EE0CFF1C001F111F215030404030C5
:1005E00090E0590790E0690790E4790760F32B8F5A
:1005F0003C8FDB01CA018F779070A070B07080349F
:100600009105A105B10561F447FD0AC0E114F104AB
:100610000105110529F0405C5F4F6F4F7F4F407817
:100620001A8EFE1711F081E08A8F4D8F5E8F6F8FCB
:1006300078A383E0898FCE0149960E947B05A0961E
:10064000E2E10C94F311A8E1B0E0E9E2F3E00C94EC
:10065000DF1169837A838B839C832D833E834F8351
:100660005887B9E0EB2EF12CEC0EFD1ECE01019661
:10067000B7010E9450068E010F5E1F4FCE010596F6
:10068000B8010E9450062985223008F47EC03989BD
:10069000323010F4B8017CC08A859A8989278A870C
:1006A000243011F0223031F4231709F06EC065EDCB
:1006B00071E06EC0343039F41D861E861F86188A9C
:1006C0001C861B8604C0323021F484E08987B70180
:1006D0005FC02B853C858B899C89281B390B3C8707
:1006E0002B87ED84FE840F851889AD88BE88CF885E
:1006F000D88CEA14FB040C051D0540F4EE0CFF1C1D
:10070000001F111F215030403C872B8720E030E034
:1007100040E050E080E090E0A0E0B0E460E070E015
:10072000EA14FB040C051D0540F0282B392B4A2B3D
:100730005B2BEA18FB080C091D09B695A795979540
:100740008795EE0CFF1C001F111F6F5F7F4F6F31ED
:10075000710531F7DA01C9018F779070A070B07020
:1007600080349105A105B10561F427FD0AC0E114AB
:10077000F1040105110529F0205C3F4F4F4F5F4FF9
:1007800020782D873E874F87588BBE01675F7F4F4C
:10079000CB010E947B056896EAE00C94FB11A8E16E
:1007A000B0E0E5EDF3E00C94E31169837A838B8389
:1007B0009C832D833E834F83588789E0E82EF12C5C
:1007C000EC0EFD1ECE010196B7010E9450068E016F
:1007D0000F5E1F4FCE010596B8010E945006898515
:1007E000823040F08989823028F0C701B8010E9428
:1007F000C80601C08FEF6896E6E00C94FF11A8E1EF
:10080000B0E0E5E0F4E00C94E31169837A838B8334
:100810009C832D833E834F83588789E0E82EF12CFB
:10082000EC0EFD1ECE010196B7010E9450068E010E
:100830000F5E1F4FCE010596B8010E9450068985B4
:10084000823040F08989823028F0C701B8010E94C7
:10085000C80601C08FEF6896E6E00C94FF11A8E18E
:10086000B0E0E5E3F4E00C94E31169837A838B83D1
:100870009C832D833E834F83588789E0E82EF12C9B
:10088000EC0EFD1ECE010196B7010E9450068E01AE
:100890000F5E1F4FCE010596B8010E945006898554
:1008A000823040F08989823028F0C701B8010E9467
:1008B000C80601C081E06896E6E00C94FF11ACE048
:1008C000B0E0E5E6F4E00C94E71169837A838B836A
:1008D0009C83CE010196BE016B5F7F4F0E94500644
:1008E0008D81823061F1823050F1843021F48E812B
:1008F000882351F12EC02F81388537FD20C06E81AD
:100900002F3131051CF06623F9F023C08EE190E011
:10091000821B930B29853A854B855C8504C05695CF
:100920004795379527958A95D2F76623B1F050956C
:100930004095309521953F4F4F4F5F4F0EC020E0BF
:1009400030E040E050E009C02FEF3FEF4FEF5FE7AE
:1009500004C020E030E040E050E8B901CA012C9624
:10096000E2E00C940312A8E0B0E0E9EBF4E00C94B0
:10097000DF117B018C01611571058105910519F469
:1009800082E0898360C083E089838EE1C82ED12C08
:10099000DC82CB82ED82FE820F831887C801B7010B
:1009A0000E942C05FC013197F7FF3BC0222733271B
:1009B0002E1B3F0B57016801022E04C0D694C7942A
:1009C000B794A7940A94D2F740E050E060E070E05A
:1009D00081E090E0A0E0B0E004C0880F991FAA1F5A
:1009E000BB1F2A95D2F70197A109B1098E219F213A
:1009F000A023B1230097A105B10521F041E050E00B
:100A000060E070E04A295B296C297D294D835E8373
:100A10006F8378878EE190E08E1B9F0B9C838B8386
:100A200012C0309781F00E2E04C0EE0CFF1C001F88
:100A3000111F0A94D2F7ED82FE820F831887CE1A17
:100A4000DF0ADC82CB821A82CE0101960E947B05EE
:100A50002896EAE00C94FB11EF92FF920F931F93FC
:100A60007B018C0180E0E81680E0F80681E0080751
:100A700080E0180788F48FEFE816F10401051105EE
:100A800031F028F088E090E0A0E0B0E017C080E00E
:100A900090E0A0E0B0E012C080E0E81680E0F80648
:100AA00080E0080781E0180728F088E190E0A0E0E6
:100AB000B0E004C080E190E0A0E0B0E020E230E0EF
:100AC00040E050E0281B390B4A0B5B0B04C0169525
:100AD0000795F794E7948A95D2F7F701E352FE4F12
:100AE0008081281B310941095109C9011F910F91CA
:100AF000FF90EF900895DF92EF92FF920F931F9374
:100B0000FC01E480F58006811781D18080818230EC
:100B100048F480E090E0A0E1B0E0E82AF92A0A2B4E
:100B20001B2BA5C0843009F49FC0823021F4EE2431
:100B3000FF24870105C0E114F1040105110519F432
:100B4000E0E0F0E096C0628173819FEF6238790740
:100B50000CF05BC022E83FEF261B370B2A31310532
:100B60002CF020E030E040E050E02AC0B801A701BE
:100B7000022E04C076956795579547950A94D2F74B
:100B800081E090E0A0E0B0E004C0880F991FAA1FA8
:100B9000BB1F2A95D2F70197A109B1098E219F2188
:100BA000A023B1230097A105B10521F081E090E0D9
:100BB000A0E0B0E09A01AB01282B392B4A2B5B2B2C
:100BC000DA01C9018F779070A070B0708034910500
:100BD000A105B10539F427FF09C0205C3F4F4F4FF5
:100BE0005F4F04C0215C3F4F4F4F5F4FE0E0F0E0AC
:100BF0002030A0E03A07A0E04A07A0E45A0710F02E
:100C0000E1E0F0E079018A0127C06038710564F500
:100C1000FB01E158FF4FD801C7018F779070A0709A
:100C2000B07080349105A105B10539F4E7FE0DC01F
:100C300080E490E0A0E0B0E004C08FE390E0A0E0AA
:100C4000B0E0E80EF91E0A1F1B1F17FF05C016951E
:100C50000795F794E794319687E016950795F794F2
:100C6000E7948A95D1F705C0EE24FF248701EFEFC2
:100C7000F0E06E2F679566276795902F9F77D79442
:100C8000DD24D7948E2F8695492F462B582F5D292A
:100C9000B701CA011F910F91FF90EF90DF90089567
:100CA000FC01DB01408151812281622F6F7770E06E
:100CB000221F2227221F9381892F880F822B282F02
:100CC00030E0991F9927991F11969C931197211530
:100CD0003105A9F5411551056105710511F482E051
:100CE00037C082E89FEF13969C938E9312979A01D8
:100CF000AB0167E0220F331F441F551F6A95D1F7E0
:100D000083E08C930DC0220F331F441F551F129692
:100D10008D919C911397019713969C938E931297A4
:100D2000203080E0380780E0480780E4580758F317
:100D300014962D933D934D935C93179708952F3FF1
:100D4000310579F4411551056105710519F484E007
:100D50008C93089564FF03C081E08C9312C01C92B1
:100D600010C02F57304013963C932E93129783E078
:100D70008C9387E0440F551F661F771F8A95D1F724
:100D8000706414964D935D936D937C9317970895BB
:100D90001F93DC01FB019C91923008F447C08081D5
:100DA000823008F443C0943051F411961C91843081
:100DB00099F58181682F70E0611B71093FC0843013
:100DC00021F0923031F48230B9F18181882389F1A8
:100DD0002DC011961C9111978230F1F08181181766
:100DE000D9F412962D913C911397828193818217A9
:100DF000930794F028173907BCF014968D919D91B4
:100E00000D90BC91A02D24813581468157812817F2
:100E100039074A075B0718F4112341F00AC082170B
:100E20009307A407B50740F4112319F061E070E0BF
:100E300005C06FEF7FEF02C060E070E0CB011F9153
:100E4000089597B18095982397B9EAE7F0E08081FB
:100E500085688083ECE7F0E0808180626295660FB0
:100E6000660F607C862B8083089590917C008F7044
:100E7000892B80937C0080917A00806480937A0033
:100E800080917A0086FDFCCF80917A008064809307
:100E90007A0080917A0086FDFCCF809178002091C5
:100EA000790030E0220F331F220F331F8295869581
:100EB0008695837090E0282B392BC9010895DF9225
:100EC000EF92FF920F931F938091DF02843431F0F1
:100ED0008135D1F1813409F06BC060C08091E002AE
:100EE0008F3319F480E091E065C08091E0028D338A
:100EF00099F4F090E102E090E202D090E302609178
:100F0000E40270E080E090E00E94B3048B019C0159
:100F10008F2D6E2D4D2D15C08091E002823409F089
:100F20004BC080E49CE920E931E0F9013197F1F709
:100F30000197D9F780E061E044E600E010E028EC9A
:100F400032E40E941F0A38C08091E0028F33A1F57D
:100F50008091E102853561F40E9489106AE370E0B6
:100F60000E94B011CB010E945B1188E091E022C089
:100F70008091E1028D3401F58BE091E00E946610D2
:100F80000E94E30F88E191E00E94661083E00E94D6
:100F900000100E945B1185E291E00CC08091E0029C
:100FA0008F3319F48AE291E005C08091E00204C019
:100FB00088E391E00E9466101F910F91FF90EF90DF
:100FC000DF900895F894AFEDB2E0E7EEF2E088E04C
:100FD00001900D928150E1F78091E702E82FF0E057
:100FE00088E0DF011D928A95E9F7789408951092C0
:100FF000B9008CE08093B8000895982F84EA80931C
:10100000BC008091BC0087FFFCCF8091B900887F35
:10101000883021F0803111F081E008959093BB0079
:1010200084E88093BC008091BC0087FFFCCF909146
:10103000B900987F983111F480E0089580E09034F1
:1010400009F081E00895982F44EA34E824E94093B8
:10105000BC008091BC0087FFFCCF8091B900887FE5
:10106000883011F0803199F79093BB003093BC0029
:101070008091BC0087FFFCCF8091B900887F8032CF
:1010800011F0883539F42093BC008091BC0084FDB8
:10109000FCCFDDCF08950E94FD07089584E9809379
:1010A000BC008091BC0084FDFCCF08958093BB0000
:1010B00084E88093BC008091BC0087FFFCCF8091C6
:1010C000B90090E0887F883209F091E0892F089577
:1010D00084EC8093BC008091BC0087FFFCCF8091A2
:1010E000BB00089584E88093BC008091BC0087FF1A
:1010F000FCCF8091BB0008951F920F920FB60F9204
:1011000011248F93EF93FF93E091DE02F0E0809142
:10111000C600E951FD4F8083E091DE02F0E0E95125
:10112000FD4F80818D3031F481E08093EF02109289
:10113000DE0205C08091DE028F5F8093DE02FF91A8
:10114000EF918F910F900FBE0F901F9018950E94F6
:1011500041100E94871080E063E00E9421070E94F6
:10116000C7080E94F70784E491E00E94661081E9B5
:1011700091E00E94661078948091EF028130E1F74F
:101180000E94E2070E945F071092EF02F5CF8AB13A
:101190008F638AB98BB1807C8BB908952F923F926F
:1011A0004F925F926F927F928F929F92AF92BF9277
:1011B000CF92DF92EF92FF920F931F93DF93CF9323
:1011C00000D000D000D0CDB7DEB7182F19012A010A
:1011D00070E080E090E00E94B30420E030E048EC52
:1011E00052E40E94230320E030E04AEF53E40E94DF
:1011F00029023B014C0160E070E08AEF93E4A40116
:1012000093010E94CB016A837B838C839D83123080
:1012100019F48BE28983ECC097E19983E9C08BB123
:10122000E9818E2B8BB9C401B3012BEA3AEA4AEA71
:1012300050E40E9429027B018C0120E030E040E86C
:101240005FE30E942F04882314F461E053C0C801B7
:10125000B70120E030E04FE753E40E94CF031816B7
:101260000CF044C0C401B30120E030E04AE754E48C
:101270000E9423035B016C0120E030E04AE755E463
:101280000E9429027B018C0120E030E040E85FE30E
:101290000E942F0488231CF461E070E023C0C80181
:1012A000B70120E03FEF4FE757E40E94CF03181645
:1012B000ACF4C601B50120E030E040E251E40E9408
:1012C00029020E94530006C080E991E00197F1F7DE
:1012D0006150704061157105B9F70EC0C801B701C2
:1012E0000E945300CB010197F1F706C0C801B70176
:1012F0000E9453006A95F1F78BB1FE818F238BB961
:101300006A817B818C819D812BEA3AEA4AEA50E42A
:101310000E9429027B018C0120E030E040E85FE37D
:101320000E942F04882314F461E055C0C801B7015E
:1013300020E030E04FE753E40E94CF0318160CF092
:1013400046C06A817B818C819D8120E030E04AE744
:1013500054E40E9423035B016C0120E030E04AE783
:1013600055E40E9429027B018C0120E030E040E836
:101370005FE30E942F0488231CF461E070E023C027
:10138000C801B70120E03FEF4FE757E40E94CF03C9
:101390001816ACF4C601B50120E030E040E251E49B
:1013A0000E9429020E94530006C080E991E0019743
:1013B000F1F76150704061157105B9F70EC0C801B1
:1013C000B7010E945300CB010197F1F706C0C80195
:1013D000B7010E9453006A95F1F7C201B1012DECEB
:1013E0003CEC4CEC5CE30E94CB011B012C0103C0E4
:1013F000898180958E83C201B10120E030E040E018
:1014000050E00E94CF0318160CF409CF26960FB6B1
:10141000F894DEBF0FBECDBFCF91DF911F910F912A
:10142000FF90EF90DF90CF90BF90AF909F908F9004
:101430007F906F905F904F903F902F9008952F92E4
:101440003F924F925F926F927F928F929F92AF9254
:10145000BF92CF92DF92EF92FF920F931F93DF9391
:10146000CF9300D000D000D0CDB7DEB7F82E180152
:10147000290150E060E070E0CB01BA010E94B304A2
:1014800020E030E048EC52E40E94230320E030E00A
:101490004AEF53E40E9429023B014C0160E070E0F6
:1014A0008AEF93E4A40193010E94CB016A837B83BA
:1014B0008C839D8381E0F81611F497E10FC0E2E080
:1014C000FE1619F4FBE2F983F4C0FF2011F419822F
:1014D000F0C083E0F81609F0ECC09FE39983E9C0FF
:1014E0008BB1E9818E2B8BB9C401B3012BEA3AEAA7
:1014F0004AEA50E40E9429027B018C0120E030E09E
:1015000040E85FE30E942F04882314F461E053C095
:10151000C801B70120E030E04FE753E40E94CF0359
:1015200018160CF044C0C401B30120E030E04AE7D3
:1015300054E40E9423035B016C0120E030E04AE7A1
:1015400055E40E9429027B018C0120E030E040E854
:101550005FE30E942F0488231CF461E070E023C045
:10156000C801B70120E03FEF4FE757E40E94CF03E7
:101570001816ACF4C601B50120E030E040E251E4B9
:101580000E9429020E94530006C080E991E0019761
:10159000F1F76150704061157105B9F70EC0C801CF
:1015A000B7010E945300CB010197F1F706C0C801B3
:1015B000B7010E9453006A95F1F78BB1FE818F232A
:1015C0008BB96A817B818C819D812BEA3AEA4AEA58
:1015D00050E40E9429027B018C0120E030E040E8C9
:1015E0005FE30E942F04882314F461E055C0C80112
:1015F000B70120E030E04FE753E40E94CF03181614
:101600000CF046C06A817B818C819D8120E030E0B6
:101610004AE754E40E9423035B016C0120E030E0C0
:101620004AE755E40E9429027B018C0120E030E06A
:1016300040E85FE30E942F0488231CF461E070E01F
:1016400023C0C801B70120E03FEF4FE757E40E94F5
:10165000CF031816ACF4C601B50120E030E040E23B
:1016600051E40E9429020E94530006C080E991E0E3
:101670000197F1F76150704061157105B9F70EC01F
:10168000C801B7010E945300CB010197F1F706C0D2
:10169000C801B7010E9453006A95F1F7C201B10178
:1016A0002DEC3CEC4CE45DE30E94CB011B012C01D2
:1016B00003C0898180958E83C201B10120E030E0B2
:1016C00040E050E00E94CF0318160CF409CF269694
:1016D0000FB6F894DEBF0FBECDBFCF91DF911F9143
:1016E0000F91FF90EF90DF90CF90BF90AF909F90C1
:1016F0008F907F906F905F904F903F902F900895C4
:101700002F923F924F925F926F927F928F929F9211
:10171000AF92BF92CF92DF92EF92FF920F931F93FF
:10172000DF93CF9300D000D000D0CDB7DEB7182F15
:1017300019012A0170E080E090E00E94B30420E0EB
:1017400030E048EC52E40E94230320E030E04AEF0E
:1017500053E40E9429023B014C0160E070E08AEFF3
:1017600093E4A40193010E94CB016A837B838C8361
:101770009D83123019F487E28983ECC09BE1998341
:10178000E9C08BB1E9818E2B8BB9C401B3012BEA7F
:101790003AEA4AEA50E40E9429027B018C0120E0E7
:1017A00030E040E85FE30E942F04882314F461E0F6
:1017B00053C0C801B70120E030E04FE753E40E9476
:1017C000CF0318160CF044C0C401B30120E030E090
:1017D0004AE754E40E9423035B016C0120E030E0FF
:1017E0004AE755E40E9429027B018C0120E030E0A9
:1017F00040E85FE30E942F0488231CF461E070E05E
:1018000023C0C801B70120E03FEF4FE757E40E9433
:10181000CF031816ACF4C601B50120E030E040E279
:1018200051E40E9429020E94530006C080E991E021
:101830000197F1F76150704061157105B9F70EC05D
:10184000C801B7010E945300CB010197F1F706C010
:10185000C801B7010E9453006A95F1F78BB1FE8170
:101860008F238BB96A817B818C819D812BEA3AEA37
:101870004AEA50E40E9429027B018C0120E030E01A
:1018800040E85FE30E942F04882314F461E055C010
:10189000C801B70120E030E04FE753E40E94CF03D6
:1018A00018160CF046C06A817B818C819D8120E0F6
:1018B00030E04AE754E40E9423035B016C0120E01E
:1018C00030E04AE755E40E9429027B018C0120E0C8
:1018D00030E040E85FE30E942F0488231CF461E0BD
:1018E00070E023C0C801B70120E03FEF4FE757E4A5
:1018F0000E94CF031816ACF4C601B50120E030E019
:1019000040E251E40E9429020E94530006C080E98F
:1019100091E00197F1F76150704061157105B9F7D9
:101920000EC0C801B7010E945300CB010197F1F727
:1019300006C0C801B7010E9453006A95F1F7C201C1
:10194000B1012DEC3CEC4CEC5CE30E94CB011B01A3
:101950002C0103C0898180958E83C201B10120E0F2
:1019600030E040E050E00E94CF0318160CF409CF9D
:1019700026960FB6F894DEBF0FBECDBFCF91DF9194
:101980001F910F91FF90EF90DF90CF90BF90AF909D
:101990009F908F907F906F905F904F903F902F908F
:1019A00008952F923F924F925F926F927F928F9203
:1019B0009F92AF92BF92CF92DF92EF92FF920F93DE
:1019C0001F93DF93CF9300D000D000D0CDB7DEB708
:1019D000182F19012A0170E080E090E00E94B30402
:1019E00020E030E048EC52E40E94230320E030E0A5
:1019F0004AEF53E40E9429023B014C0160E070E091
:101A00008AEF93E4A40193010E94CB016A837B8354
:101A10008C839D83123019F489E08983ECC095E0B2
:101A20009983E9C08BB1E9818E2B8BB9C401B301D5
:101A30002BEA3AEA4AEA50E40E9429027B018C012F
:101A400020E030E040E85FE30E942F04882314F494
:101A500061E053C0C801B70120E030E04FE753E434
:101A60000E94CF0318160CF044C0C401B30120E05B
:101A700030E04AE754E40E9423035B016C0120E05C
:101A800030E04AE755E40E9429027B018C0120E006
:101A900030E040E85FE30E942F0488231CF461E0FB
:101AA00070E023C0C801B70120E03FEF4FE757E4E3
:101AB0000E94CF031816ACF4C601B50120E030E057
:101AC00040E251E40E9429020E94530006C080E9CE
:101AD00091E00197F1F76150704061157105B9F718
:101AE0000EC0C801B7010E945300CB010197F1F766
:101AF00006C0C801B7010E9453006A95F1F78BB187
:101B0000FE818F238BB96A817B818C819D812BEA39
:101B10003AEA4AEA50E40E9429027B018C0120E063
:101B200030E040E85FE30E942F04882314F461E072
:101B300055C0C801B70120E030E04FE753E40E94F0
:101B4000CF0318160CF046C06A817B818C819D8181
:101B500020E030E04AE754E40E9423035B016C017B
:101B600020E030E04AE755E40E9429027B018C0125
:101B700020E030E040E85FE30E942F0488231CF45B
:101B800061E070E023C0C801B70120E03FEF4FE7FC
:101B900057E40E94CF031816ACF4C601B50120E04B
:101BA00030E040E251E40E9429020E94530006C046
:101BB00080E991E00197F1F761507040611571057E
:101BC000B9F70EC0C801B7010E945300CB010197BD
:101BD000F1F706C0C801B7010E9453006A95F1F7FA
:101BE000C201B1012DEC3CEC4CEC5CE30E94CB015A
:101BF0001B012C0103C0898180958E83C201B10134
:101C000020E030E040E050E00E94CF0318160CF4D2
:101C100009CF8BB1827F8BB926960FB6F894DEBFC1
:101C20000FBECDBFCF91DF911F910F91FF90EF902D
:101C3000DF90CF90BF90AF909F908F907F906F90EC
:101C40005F904F903F902F900895EF92FF920F93E7
:101C50001F93780189010AC0C801B7012DEC3CEC43
:101C60004CEC5DE30E94CB017B018C01C801B70104
:101C700020E030E040E050E00E94CF03181664F30B
:101C80008BB1827F8BB98BB18D7C8BB91F910F91FA
:101C9000FF90EF9008952F923F924F925F926F9234
:101CA0007F928F929F92AF92BF92CF92DF92EF92EC
:101CB000FF920F931F93DF93CF9300D000D000D0FB
:101CC000CDB7DEB7182F19012A0170E080E090E04F
:101CD0000E94B30420E030E048EC52E40E94230369
:101CE00020E030E04AEF54E40E9429023B014C011D
:101CF00060E070E08AEF94E4A40193010E94CB01BC
:101D00006A837B838C839D83123019F482E28983FA
:101D1000ECC092E19983E9C08BB1E9818E2B8BB93C
:101D2000C401B3012BEA3AEA4AEA50E40E942902CC
:101D30007B018C0120E030E040E85FE30E942F044B
:101D4000882314F461E053C0C801B70120E030E0FB
:101D50004FE753E40E94CF0318160CF044C0C401AF
:101D6000B30120E030E04AE754E40E9423035B0122
:101D70006C0120E030E04AE755E40E9429027B0133
:101D80008C0120E030E040E85FE30E942F048823CC
:101D90001CF461E070E023C0C801B70120E03FEF10
:101DA0004FE757E40E94CF031816ACF4C601B50103
:101DB00020E030E040E251E40E9429020E945300FA
:101DC00006C080E991E00197F1F76150704061151C
:101DD0007105B9F70EC0C801B7010E945300CB01CD
:101DE0000197F1F706C0C801B7010E9453006A9538
:101DF000F1F78BB1FE818F238BB96A817B818C8156
:101E00009D812BEA3AEA4AEA50E40E9429027B01CA
:101E10008C0120E030E040E85FE30E942F0488233B
:101E200014F461E055C0C801B70120E030E04FE78D
:101E300053E40E94CF0318160CF046C06A817B81E0
:101E40008C819D8120E030E04AE754E40E94230326
:101E50005B016C0120E030E04AE755E40E94290272
:101E60007B018C0120E030E040E85FE30E942F041A
:101E700088231CF461E070E023C0C801B70120E0B2
:101E80003FEF4FE757E40E94CF031816ACF4C601AA
:101E9000B50120E030E040E251E40E9429020E94B6
:101EA000530006C080E991E00197F1F7615070405E
:101EB00061157105B9F70EC0C801B7010E94530042
:101EC000CB010197F1F706C0C801B7010E9453008A
:101ED0006A95F1F7C201B1012DEC3CEC4CEC5DE3ED
:101EE0000E94CB011B012C0103C0898180958E8348
:101EF000C201B10120E030E040E050E00E94CF0399
:101F000018160CF409CF8BB18D7C8BB926960FB6C1
:101F1000F894DEBF0FBECDBFCF91DF911F910F911F
:101F2000FF90EF90DF90CF90BF90AF909F908F90F9
:101F30007F906F905F904F903F902F9008950F93F8
:101F40001F93182F062F80ED0E94FD078BE60E943D
:101F5000560880E00E9456080E944E0880ED0E94BC
:101F6000FD078CE10E945608812F880F880F880F8B
:101F70000E9456080E944E0880ED0E94FD078BE1EA
:101F80000E945608802F880F880F880F0E945608DD
:101F90000E944E0880ED0E94FD078AE60E945608C6
:101FA00080E00E9456080E944E0880ED0E94FD07C6
:101FB00087E30E94560882E00E9456080E944E085D
:101FC0001F910F91089588E10E94FD078AE00E9409
:101FD000560881E00E9456080E944E0888E10E943F
:101FE000FD0782E00E9456080E944E0889E10E9487
:101FF0004B080E9472080E947208882379F30895A2
:102000000F931F93182F88E10E94FD07812F0E94D4
:1020100056080E944E0889E10E944B080E946808F9
:10202000082F10E00E9472080E944E0885E0000F01
:10203000111F8A95E1F7C8011F910F910895EF9242
:10204000FF920F931F93182F80ED0E94FD07812FA1
:102050000E9456080E944E0881ED0E944B080E9483
:102060006808F82EEE240E947208082F0E944E087D
:1020700010E00E291F29C8011F910F91FF90EF90CA
:10208000089589E190E09093C5008093C400E0EC4E
:10209000F0E080818D7F808388E98093C100E2EC4D
:1020A000F0E08081866080830895982F8091C00041
:1020B00085FFFCCF9093C60008958091C00087FDF6
:1020C00002C080E008958091C6000895FC0107C019
:1020D0008091C00085FFFCCF31969093C60090811F
:1020E0009923B1F70895AC0120E030E00BC0809156
:1020F000C600FA01E20FF31F80832F5F3F4F2531A7
:10210000310521F08091C00087FDF1CF0895569AE6
:1021100008955E9A80E58A95F1F75E988AE68A9539
:10212000F1F780E090E0A0E0B0E04F990CC001969C
:10213000A11DB11D803C27E2920729E0A20720E003
:10214000B20799F73CC01092800082E08093810032
:10215000109285001092840020E030E040E050E0D2
:102160004F9B14C0809184009091850081569A4EB7
:1021700068F42F5F3F4F4F4F5F4F203C87E2380797
:1021800089E0480780E0580759F719C0809184001A
:1021900090918500A0E0B0E01092810081362AEE97
:1021A000920720E0A20720E0B20718F02EEF3FEFE1
:1021B00008C0B695A795979587959C0102C02FEF0B
:1021C0003FEFC9010895AC0120E030E002C02F5F6D
:1021D0003F4FFA01E20FF31F80818823C1F7C90145
:1021E00008950F931F93DF93CF9300D000D000D0BA
:1021F000CDB7DEB7AC010DB71EB71C821B8220E045
:1022000030E002C02F5F3F4FFA01E20FF31F8081E1
:102210008823C1F73E832D838D819E812DB73EB7E4
:10222000281B390B0FB6F8943EBF0FBE2DBF6DB7FC
:102230007EB76F5F7F4F2D813E81DA01A20FB31F02
:102240000DC0EB81FC818C91E60FF71F80838B81A1
:102250009C8101969C838B832150304011971216EC
:1022600013067CF31A8219820FC0A981BA81E98111
:10227000FA81E60FF71F8081A40FB51F8C93898127
:102280009A8101969A83898329813A818D819E81E1
:102290002817390754F30FB6F8941EBF0FBE0DBFB1
:1022A00026960FB6F894DEBF0FBECDBFCF91DF915B
:1022B0001F910F910895CF92DF92EF92FF920F93AB
:1022C0001F93DF93CF9300D000D00F92CDB7DEB72E
:1022D0006C019C0197FF04C022273327281B390B70
:1022E000EE24FF248E010F5F1F4FF801EE0DFF1D3E
:1022F000C9016AE070E00E94C411805D8083089487
:10230000E11CF11CC9016AE070E00E94C4119B014C
:102310001616170654F3D7FE08C00E0D1F1D8DE2CA
:10232000F80180830894E11CF11C8E010F5F1F4FA0
:10233000E00EF11EF7011082C8010E94F110C801E1
:102340000E9466100F900F900F900F900F90CF91FA
:10235000DF911F910F91FF90EF90DF90CF90089544
:10236000AA1BBB1B51E107C0AA1FBB1FA617B707BB
:1023700010F0A61BB70B881F991F5A95A9F78095D7
:102380009095BC01CD01089597FB092E07260AD030
:1023900077FD04D0E5DF06D000201AF47095619532
:1023A0007F4F0895F6F7909581959F4F08952F924E
:1023B0003F924F925F926F927F928F929F92AF92D5
:1023C000BF92CF92DF92EF92FF920F931F93CF9322
:1023D000DF93CDB7DEB7CA1BDB0B0FB6F894DEBFB9
:1023E0000FBECDBF09942A88398848885F846E84DF
:1023F0007D848C849B84AA84B984C884DF80EE8029
:10240000FD800C811B81AA81B981CE0FD11D0FB631
:10241000F894DEBF0FBECDBFED010895F894FFCF55
:1024200044726976650D0A000D0A005472696720CE
:10243000436F6D70617373005265616420436F6D0B
:102440007061737300446F6E65004E616D65202E80
:102450003A2E20413D0D0A00434D44204572726FD3
:10246000720D0A0048656C6C6F2E204D79206E61EC
:102470006D652069732053544556453A2053656C69
:102480006620547261696E696E6720456C6563747D
:10249000726F6E69632056656869636C6520666F4C
:1024A00072204578706C6F726174696F6E2E0D0AC0
:1024B000004920616D206120726F626F742E20527E
:1024C00069676874206E6F77204920646F6E277487
:1024D000206B6E6F772076657279206D7563682C3E
:1024E000206275742049276D206C6561726E696E7B
:1024F000672E0D0A0000000000000000000001022D
:10250000020303030304040404040404040505058E
:102510000505050505050505050505050506060668
:10252000060606060606060606060606060606064B
:102530000606060606060606060606060607070738
:10254000070707070707070707070707070707071B
:10255000070707070707070707070707070707070B
:1025600007070707070707070707070707070707FB
:1025700007070707070707070707070707080808E8
:1025800008080808080808080808080808080808CB
:1025900008080808080808080808080808080808BB
:1025A00008080808080808080808080808080808AB
:1025B000080808080808080808080808080808089B
:1025C000080808080808080808080808080808088B
:1025D000080808080808080808080808080808087B
:1025E000080808080808080808080808080808086B
:0E25F000080808080808080808080808080075
:00000001FF
